:107E0000112484B714BE982F987083FF04C020916A
:107E1000FE082F3308F4282E81FD0BC0992321F092
:107E20008091FE088F3328F080E0CAD0E0E0FF2781
:107E3000099400D01F92CDB7DEB785E08093810012
:107E400082E08093C00088E18093C10086E0809347
:107E5000C20082E28093C4008EE0B2D0259A86E010
:107E600020E33CEF91E0309385002093840096BBA3
:107E7000B09BFECF1D9AA8958150A9F7812C912C1B
:107E800013E001E025E0F22E31E1E32E8DD08134C4
:107E900081F48AD0982F998399D09981923811F4DE
:107EA00082E005C0913811F486E001C083E075D00E
:107EB00071C0823411F484E103C0853419F485E083
:107EC0008DD068C0853549F46FD0D82E6DD08D2CFB
:107ED000912C982A880C991C5CC0863521F484E08A
:107EE0007DD080E0E4CF843609F036C05DD05CD030
:107EF000D82E5AD0C82EA12CBB24B39455D0F5014E
:107F000081935F01DE12FACF61D0F5E4CF1201C098
:107F1000FFCFF40117BFE89507B600FCFDCFA40121
:107F2000A0E0B1E02C911296CD010197FC01808177
:107F300030E0382BFA01090107BFE89511244E5FA4
:107F40005F4FDA12EFCFF401F7BEE89507B600FCF9
:107F5000FDCFE7BEE8951EC0843771F425D024D04C
:107F6000D82E22D033D05401F50185915F0115D070
:107F7000DA94D110F9CF0EC0853739F427D08EE1CD
:107F80000CD085E90AD08FE092CF813511F488E0DA
:107F900017D01CD080E101D079CF9091C00095FF1F
:107FA000FCCF8093C60008958091C00087FFFCCF6E
:107FB0008091C00084FD01C0A8958091C6000895FD
:107FC000E0E6F0E098E1908380830895EDDF803271
:107FD00019F088E0F5DFFFCF84E1DFCFCF93C82F22
:0A7FE000E3DFC150E9F7CF91F1CFC4
:027FFE00020679
:0400000300007E007B
:00000001FF
